{
  "contractName": "UNDA",
  "abi": [
    {
      "constant": true,
      "inputs": [],
      "name": "NDApairing",
      "outputs": [
        {
          "name": "",
          "type": "string"
        }
      ],
      "payable": false,
      "stateMutability": "view",
      "type": "function"
    },
    {
      "constant": true,
      "inputs": [],
      "name": "Author",
      "outputs": [
        {
          "name": "",
          "type": "string"
        }
      ],
      "payable": false,
      "stateMutability": "view",
      "type": "function"
    },
    {
      "constant": true,
      "inputs": [],
      "name": "Web2URL",
      "outputs": [
        {
          "name": "",
          "type": "string"
        }
      ],
      "payable": false,
      "stateMutability": "view",
      "type": "function"
    },
    {
      "constant": true,
      "inputs": [],
      "name": "UNDArevocation",
      "outputs": [
        {
          "name": "",
          "type": "string"
        }
      ],
      "payable": false,
      "stateMutability": "view",
      "type": "function"
    },
    {
      "constant": false,
      "inputs": [],
      "name": "renounceOwnership",
      "outputs": [],
      "payable": false,
      "stateMutability": "nonpayable",
      "type": "function"
    },
    {
      "constant": true,
      "inputs": [],
      "name": "owner",
      "outputs": [
        {
          "name": "",
          "type": "address"
        }
      ],
      "payable": false,
      "stateMutability": "view",
      "type": "function"
    },
    {
      "constant": true,
      "inputs": [],
      "name": "isOwner",
      "outputs": [
        {
          "name": "",
          "type": "bool"
        }
      ],
      "payable": false,
      "stateMutability": "view",
      "type": "function"
    },
    {
      "constant": true,
      "inputs": [],
      "name": "Title",
      "outputs": [
        {
          "name": "",
          "type": "string"
        }
      ],
      "payable": false,
      "stateMutability": "view",
      "type": "function"
    },
    {
      "constant": true,
      "inputs": [],
      "name": "Version",
      "outputs": [
        {
          "name": "",
          "type": "string"
        }
      ],
      "payable": false,
      "stateMutability": "view",
      "type": "function"
    },
    {
      "constant": true,
      "inputs": [],
      "name": "License",
      "outputs": [
        {
          "name": "",
          "type": "string"
        }
      ],
      "payable": false,
      "stateMutability": "view",
      "type": "function"
    },
    {
      "constant": true,
      "inputs": [],
      "name": "UNDAterms",
      "outputs": [
        {
          "name": "",
          "type": "string"
        }
      ],
      "payable": false,
      "stateMutability": "view",
      "type": "function"
    },
    {
      "constant": false,
      "inputs": [
        {
          "name": "newOwner",
          "type": "address"
        }
      ],
      "name": "transferOwnership",
      "outputs": [],
      "payable": false,
      "stateMutability": "nonpayable",
      "type": "function"
    },
    {
      "inputs": [
        {
          "name": "_Title",
          "type": "string"
        },
        {
          "name": "_Version",
          "type": "string"
        },
        {
          "name": "_Author",
          "type": "string"
        },
        {
          "name": "_License",
          "type": "string"
        },
        {
          "name": "_UNDAterms",
          "type": "string"
        },
        {
          "name": "_Web2URL",
          "type": "string"
        }
      ],
      "payable": false,
      "stateMutability": "nonpayable",
      "type": "constructor"
    },
    {
      "anonymous": false,
      "inputs": [
        {
          "indexed": true,
          "name": "previousOwner",
          "type": "address"
        },
        {
          "indexed": true,
          "name": "newOwner",
          "type": "address"
        }
      ],
      "name": "OwnershipTransferred",
      "type": "event"
    },
    {
      "constant": true,
      "inputs": [],
      "name": "ReadUNDAterms",
      "outputs": [
        {
          "name": "",
          "type": "string"
        }
      ],
      "payable": false,
      "stateMutability": "view",
      "type": "function"
    },
    {
      "constant": false,
      "inputs": [],
      "name": "AdoptUNDAterms",
      "outputs": [],
      "payable": false,
      "stateMutability": "nonpayable",
      "type": "function"
    },
    {
      "constant": false,
      "inputs": [
        {
          "name": "_NDApairing",
          "type": "string"
        }
      ],
      "name": "PairNDAtoUNDAterms",
      "outputs": [],
      "payable": false,
      "stateMutability": "nonpayable",
      "type": "function"
    },
    {
      "constant": false,
      "inputs": [
        {
          "name": "_UNDArevocation",
          "type": "string"
        }
      ],
      "name": "RevokeAdoptionOfUNDA",
      "outputs": [],
      "payable": false,
      "stateMutability": "nonpayable",
      "type": "function"
    }
  ],
  "bytecode": "0x60806040523480156200001157600080fd5b50604051620015eb380380620015eb833981018060405260c08110156200003757600080fd5b8101908080516401000000008111156200005057600080fd5b828101905060208101848111156200006757600080fd5b81518560018202830111640100000000821117156200008557600080fd5b50509291906020018051640100000000811115620000a257600080fd5b82810190506020810184811115620000b957600080fd5b8151856001820283011164010000000082111715620000d757600080fd5b50509291906020018051640100000000811115620000f457600080fd5b828101905060208101848111156200010b57600080fd5b81518560018202830111640100000000821117156200012957600080fd5b505092919060200180516401000000008111156200014657600080fd5b828101905060208101848111156200015d57600080fd5b81518560018202830111640100000000821117156200017b57600080fd5b505092919060200180516401000000008111156200019857600080fd5b82810190506020810184811115620001af57600080fd5b8151856001820283011164010000000082111715620001cd57600080fd5b50509291906020018051640100000000811115620001ea57600080fd5b828101905060208101848111156200020157600080fd5b81518560018202830111640100000000821117156200021f57600080fd5b5050929190505050336000806101000a81548173ffffffffffffffffffffffffffffffffffffffff021916908373ffffffffffffffffffffffffffffffffffffffff1602179055506000809054906101000a900473ffffffffffffffffffffffffffffffffffffffff1673ffffffffffffffffffffffffffffffffffffffff16600073ffffffffffffffffffffffffffffffffffffffff167f8be0079c531659141344cd1fd0a4f28419497f9722a3daafe3b4186f6b6457e060405160405180910390a38560019080519060200190620002fb92919062000385565b5084600290805190602001906200031492919062000385565b5083600390805190602001906200032d92919062000385565b5082600490805190602001906200034692919062000385565b5081600590805190602001906200035f92919062000385565b5080600690805190602001906200037892919062000385565b5050505050505062000434565b828054600181600116156101000203166002900490600052602060002090601f016020900481019282601f10620003c857805160ff1916838001178555620003f9565b82800160010185558215620003f9579182015b82811115620003f8578251825591602001919060010190620003db565b5b5090506200040891906200040c565b5090565b6200043191905b808211156200042d57600081600090555060010162000413565b5090565b90565b6111a780620004446000396000f3fe6080604052600436106100e6576000357c0100000000000000000000000000000000000000000000000000000000900463ffffffff16806308e41fe6146100eb57806309f052c71461017b578063182cae991461019257806320b2af52146102225780633de2ee1f146102b25780633f35e6201461037a5780634f092c5e1461040a578063715018a61461049a5780638da5cb5b146104b15780638f32d59b14610508578063a9da554814610537578063b87f0404146105ff578063bb62860d1461068f578063cf2131631461071f578063d219fad9146107af578063f2fde38b1461083f575b600080fd5b3480156100f757600080fd5b50610100610890565b6040518080602001828103825283818151815260200191508051906020019080838360005b83811015610140578082015181840152602081019050610125565b50505050905090810190601f16801561016d5780820380516001836020036101000a031916815260200191505b509250505060405180910390f35b34801561018757600080fd5b5061019061092e565b005b34801561019e57600080fd5b506101a7610930565b6040518080602001828103825283818151815260200191508051906020019080838360005b838110156101e75780820151818401526020810190506101cc565b50505050905090810190601f1680156102145780820380516001836020036101000a031916815260200191505b509250505060405180910390f35b34801561022e57600080fd5b506102376109d2565b6040518080602001828103825283818151815260200191508051906020019080838360005b8381101561027757808201518184015260208101905061025c565b50505050905090810190601f1680156102a45780820380516001836020036101000a031916815260200191505b509250505060405180910390f35b3480156102be57600080fd5b50610378600480360360208110156102d557600080fd5b81019080803590602001906401000000008111156102f257600080fd5b82018360208201111561030457600080fd5b8035906020019184600183028401116401000000008311171561032657600080fd5b91908080601f016020809104026020016040519081016040528093929190818152602001838380828437600081840152601f19601f820116905080830192505050505050509192919290505050610a70565b005b34801561038657600080fd5b5061038f610a8a565b6040518080602001828103825283818151815260200191508051906020019080838360005b838110156103cf5780820151818401526020810190506103b4565b50505050905090810190601f1680156103fc5780820380516001836020036101000a031916815260200191505b509250505060405180910390f35b34801561041657600080fd5b5061041f610b28565b6040518080602001828103825283818151815260200191508051906020019080838360005b8381101561045f578082015181840152602081019050610444565b50505050905090810190601f16801561048c5780820380516001836020036101000a031916815260200191505b509250505060405180910390f35b3480156104a657600080fd5b506104af610bc6565b005b3480156104bd57600080fd5b506104c6610c98565b604051808273ffffffffffffffffffffffffffffffffffffffff1673ffffffffffffffffffffffffffffffffffffffff16815260200191505060405180910390f35b34801561051457600080fd5b5061051d610cc1565b604051808215151515815260200191505060405180910390f35b34801561054357600080fd5b506105fd6004803603602081101561055a57600080fd5b810190808035906020019064010000000081111561057757600080fd5b82018360208201111561058957600080fd5b803590602001918460018302840111640100000000831117156105ab57600080fd5b91908080601f016020809104026020016040519081016040528093929190818152602001838380828437600081840152601f19601f820116905080830192505050505050509192919290505050610d18565b005b34801561060b57600080fd5b50610614610d45565b6040518080602001828103825283818151815260200191508051906020019080838360005b83811015610654578082015181840152602081019050610639565b50505050905090810190601f1680156106815780820380516001836020036101000a031916815260200191505b509250505060405180910390f35b34801561069b57600080fd5b506106a4610de3565b6040518080602001828103825283818151815260200191508051906020019080838360005b838110156106e45780820151818401526020810190506106c9565b50505050905090810190601f1680156107115780820380516001836020036101000a031916815260200191505b509250505060405180910390f35b34801561072b57600080fd5b50610734610e81565b6040518080602001828103825283818151815260200191508051906020019080838360005b83811015610774578082015181840152602081019050610759565b50505050905090810190601f1680156107a15780820380516001836020036101000a031916815260200191505b509250505060405180910390f35b3480156107bb57600080fd5b506107c4610f1f565b6040518080602001828103825283818151815260200191508051906020019080838360005b838110156108045780820151818401526020810190506107e9565b50505050905090810190601f1680156108315780820380516001836020036101000a031916815260200191505b509250505060405180910390f35b34801561084b57600080fd5b5061088e6004803603602081101561086257600080fd5b81019080803573ffffffffffffffffffffffffffffffffffffffff169060200190929190505050610fbd565b005b60088054600181600116156101000203166002900480601f0160208091040260200160405190810160405280929190818152602001828054600181600116156101000203166002900480156109265780601f106108fb57610100808354040283529160200191610926565b820191906000526020600020905b81548152906001019060200180831161090957829003601f168201915b505050505081565b565b606060058054600181600116156101000203166002900480601f0160208091040260200160405190810160405280929190818152602001828054600181600116156101000203166002900480156109c85780601f1061099d576101008083540402835291602001916109c8565b820191906000526020600020905b8154815290600101906020018083116109ab57829003601f168201915b5050505050905090565b60038054600181600116156101000203166002900480601f016020809104026020016040519081016040528092919081815260200182805460018160011615610100020316600290048015610a685780601f10610a3d57610100808354040283529160200191610a68565b820191906000526020600020905b815481529060010190602001808311610a4b57829003601f168201915b505050505081565b8060089080519060200190610a869291906110d6565b5050565b60068054600181600116156101000203166002900480601f016020809104026020016040519081016040528092919081815260200182805460018160011615610100020316600290048015610b205780601f10610af557610100808354040283529160200191610b20565b820191906000526020600020905b815481529060010190602001808311610b0357829003601f168201915b505050505081565b60078054600181600116156101000203166002900480601f016020809104026020016040519081016040528092919081815260200182805460018160011615610100020316600290048015610bbe5780601f10610b9357610100808354040283529160200191610bbe565b820191906000526020600020905b815481529060010190602001808311610ba157829003601f168201915b505050505081565b610bce610cc1565b1515610bd957600080fd5b600073ffffffffffffffffffffffffffffffffffffffff166000809054906101000a900473ffffffffffffffffffffffffffffffffffffffff1673ffffffffffffffffffffffffffffffffffffffff167f8be0079c531659141344cd1fd0a4f28419497f9722a3daafe3b4186f6b6457e060405160405180910390a360008060006101000a81548173ffffffffffffffffffffffffffffffffffffffff021916908373ffffffffffffffffffffffffffffffffffffffff160217905550565b60008060009054906101000a900473ffffffffffffffffffffffffffffffffffffffff16905090565b60008060009054906101000a900473ffffffffffffffffffffffffffffffffffffffff1673ffffffffffffffffffffffffffffffffffffffff163373ffffffffffffffffffffffffffffffffffffffff1614905090565b610d20610cc1565b1515610d2b57600080fd5b8060079080519060200190610d419291906110d6565b5050565b60018054600181600116156101000203166002900480601f016020809104026020016040519081016040528092919081815260200182805460018160011615610100020316600290048015610ddb5780601f10610db057610100808354040283529160200191610ddb565b820191906000526020600020905b815481529060010190602001808311610dbe57829003601f168201915b505050505081565b60028054600181600116156101000203166002900480601f016020809104026020016040519081016040528092919081815260200182805460018160011615610100020316600290048015610e795780601f10610e4e57610100808354040283529160200191610e79565b820191906000526020600020905b815481529060010190602001808311610e5c57829003601f168201915b505050505081565b60048054600181600116156101000203166002900480601f016020809104026020016040519081016040528092919081815260200182805460018160011615610100020316600290048015610f175780601f10610eec57610100808354040283529160200191610f17565b820191906000526020600020905b815481529060010190602001808311610efa57829003601f168201915b505050505081565b60058054600181600116156101000203166002900480601f016020809104026020016040519081016040528092919081815260200182805460018160011615610100020316600290048015610fb55780601f10610f8a57610100808354040283529160200191610fb5565b820191906000526020600020905b815481529060010190602001808311610f9857829003601f168201915b505050505081565b610fc5610cc1565b1515610fd057600080fd5b610fd981610fdc565b50565b600073ffffffffffffffffffffffffffffffffffffffff168173ffffffffffffffffffffffffffffffffffffffff161415151561101857600080fd5b8073ffffffffffffffffffffffffffffffffffffffff166000809054906101000a900473ffffffffffffffffffffffffffffffffffffffff1673ffffffffffffffffffffffffffffffffffffffff167f8be0079c531659141344cd1fd0a4f28419497f9722a3daafe3b4186f6b6457e060405160405180910390a3806000806101000a81548173ffffffffffffffffffffffffffffffffffffffff021916908373ffffffffffffffffffffffffffffffffffffffff16021790555050565b828054600181600116156101000203166002900490600052602060002090601f016020900481019282601f1061111757805160ff1916838001178555611145565b82800160010185558215611145579182015b82811115611144578251825591602001919060010190611129565b5b5090506111529190611156565b5090565b61117891905b8082111561117457600081600090555060010161115c565b5090565b9056fea165627a7a72305820c2ecf91b442564d62ed5195b42353ce94b440499742dbaface86b33fe224d7880029",
  "source": "/**\n * UNDA is an on-chain \"Universal NDA\" that allows anyone to prospectively adopt standard NDA terms to:\n * join \"Trustlayer\" protocol for rapid NDA adoption with other adoptees;\n * make secure records of their 'paired' NDAs generated through Trustlayer Nodes...\n                              \t \n                             \t*  * \t*   *   \n                              \t*  *   *  *   \n             \t___---___---                \t---___---___\n       \t___---___---        \tE N T E R      \t---___---___\n \t___---___---              \tTrustlayer          \t---___---___\n__---___---_________________________________________________________---___---__\n===============================================================================\n \\__/=====\\__/   \\__/=====\\__/   \\__/=====\\__/   \\__/=====\\__/   \\__/=====\\__/\n\t|||||||     \t|||||||     \t|||||||     \t|||||||     \t|||||||\n\t|||||||     \t|||||||     \t|||||||     \t|||||||     \t|||||||\n\t|||||||     \t|||||||     \t|||||||     \t|||||||     \t|||||||\n\t|||||||     \t|||||||     \t|||||||     \t|||||||     \t|||||||\n\t|||||||     \t|||||||     \t|||||||     \t|||||||     \t|||||||\n\t|||||||     \t|||||||     \t|||||||     \t|||||||     \t|||||||\n\t|||||||     \t|||||||     \t|||||||     \t|||||||     \t|||||||\n\t|||||||     \t|||||||     \t|||||||     \t|||||||     \t|||||||\n   ZZZZZZZZZ   \tZZZZZZZZZ   \tZZZZZZZZZ   \tZZZZZZZZZ   \tZZZZZZZZZ\n  ===========================================================================\n__|_________________________________________________________________________|__\n_|___________________________________________________________________________|_\n|_____________________________________________________________________________|\n_______________________________________________________________________________\n */\n\n\npragma solidity ^0.5.0;\n\n/**\n * @title Ownable\n * @dev The Ownable contract has an owner address, and provides basic authorization control\n * functions, this simplifies the implementation of \"user permissions\".\n */\ncontract Ownable {\n\taddress private _owner;\n\n\tevent OwnershipTransferred(address indexed previousOwner, address indexed newOwner);\n\n\t/**\n \t* @dev The Ownable constructor sets the original `owner` of the contract to the sender\n \t* account.\n \t*/\n\tconstructor () internal {\n    \t_owner = msg.sender;\n    \temit OwnershipTransferred(address(0), _owner);\n\t}\n\n\t/**\n \t* @return the address of the owner.\n \t*/\n\tfunction owner() public view returns (address) {\n    \treturn _owner;\n\t}\n\n\t/**\n \t* @dev Throws if called by any account other than the owner.\n \t*/\n\tmodifier onlyOwner() {\n    \trequire(isOwner());\n    \t_;\n\t}\n\n\t/**\n \t* @return true if `msg.sender` is the owner of the contract.\n \t*/\n\tfunction isOwner() public view returns (bool) {\n    \treturn msg.sender == _owner;\n\t}\n\n\t/**\n \t* @dev Allows the current owner to relinquish control of the contract.\n \t* It will not be possible to call the functions with the `onlyOwner`\n \t* modifier anymore.\n \t* @notice Renouncing ownership will leave the contract without an owner,\n \t* thereby removing any functionality that is only available to the owner.\n \t*/\n\tfunction renounceOwnership() public onlyOwner {\n    \temit OwnershipTransferred(_owner, address(0));\n    \t_owner = address(0);\n\t}\n\n\t/**\n \t* @dev Allows the current owner to transfer control of the contract to a newOwner.\n \t* @param newOwner The address to transfer ownership to.\n \t*/\n\tfunction transferOwnership(address newOwner) public onlyOwner {\n    \t_transferOwnership(newOwner);\n\t}\n\n\t/**\n \t* @dev Transfers control of the contract to a newOwner.\n \t* @param newOwner The address to transfer ownership to.\n \t*/\n\tfunction _transferOwnership(address newOwner) internal {\n    \trequire(newOwner != address(0));\n    \temit OwnershipTransferred(_owner, newOwner);\n    \t_owner = newOwner;\n\t}\n}\n\ncontract UNDA is Ownable {\n\t/* Define ‘UNDAterms’ for prospective adoptions */\n\tstring public Title;\n\tstring public Version;\n\tstring public Author;\n\tstring public License;\n\tstring public UNDAterms;\n\tstring public Web2URL;\n\tstring public UNDArevocation;\n\tstring public NDApairing;\n    \n\t/* This runs when the contract is executed and adds initial UNDA descriptions */\n\tconstructor(string memory _Title, string memory _Version, string memory _Author, string memory _License, string memory _UNDAterms, string memory _Web2URL) public {\n    \tTitle = _Title;\n    \tVersion = _Version;\n    \tAuthor = _Author;\n    \tLicense = _License;\n    \tUNDAterms = _UNDAterms;\n    \tWeb2URL = _Web2URL;\n\t}\n\n\t/* Reads 'UNDAterms' from constructor */\n\tfunction ReadUNDAterms() public view returns (string memory) {\n    \treturn UNDAterms;\n\t}\n    \n\t/* Calls latest adoption hash to 'UNDAterms' */\n\tfunction AdoptUNDAterms() public {\n\t}\n\n\tfunction PairNDAtoUNDAterms(string memory _NDApairing) public {\n    \tNDApairing = _NDApairing;\n\t}\n    \n\t/* Adds latest readable revocation of UNDA 'terms' adoption; can add 'revocation string message', e.g. adoption hash */\n\tfunction RevokeAdoptionOfUNDA(string memory _UNDArevocation) onlyOwner public {\n    \tUNDArevocation = _UNDArevocation;\n\t}\n}\n",
  "sourcePath": "/Users/iskenxan/Documents/GitHub/Trustlayer-Server/contracts/UNDA.sol",
  "compiler": {
    "name": "solc",
    "version": "0.5.0+commit.1d4f565a.Emscripten.clang"
  },
  "schemaVersion": "3.0.6",
  "updatedAt": "2019-04-08T22:39:36.681Z",
  "devdoc": {
    "methods": {
      "isOwner()": {
        "return": "true if `msg.sender` is the owner of the contract."
      },
      "owner()": {
        "return": "the address of the owner."
      },
      "renounceOwnership()": {
        "details": "Allows the current owner to relinquish control of the contract. It will not be possible to call the functions with the `onlyOwner` modifier anymore."
      },
      "transferOwnership(address)": {
        "details": "Allows the current owner to transfer control of the contract to a newOwner.",
        "params": {
          "newOwner": "The address to transfer ownership to."
        }
      }
    }
  },
  "userdoc": {
    "methods": {
      "renounceOwnership()": {
        "notice": "Renouncing ownership will leave the contract without an owner, thereby removing any functionality that is only available to the owner."
      }
    }
  }
}